:100000000C9453000C947B000C947B000C947B00AC
:100010000C947B000C947B000C947B000C947B0074
:100020000C947B000C947B000C947B000C947B0064
:100030000C947B000C947B000C947B000C947B0054
:100040000C94DF010C947B000C944F020C94290259
:100050000C947B000C947B000C947B000C947B0034
:100060000C947B000C947B0000000000250028000D
:100070002B0000000000240027002A0004040404D0
:100080000404040402020202020203030303030342
:10009000010204081020408001020408102001021F
:1000A00004081020980311241FBECFEFD8E0DEBF54
:1000B000CDBF11E0A0E0B1E0E8EEF7E002C00590AE
:1000C0000D92AC32B107D9F721E0ACE2B1E001C04A
:1000D0001D92A23DB207E1F710E0C3E5D0E004C0F5
:1000E0002197FE010E94E703C235D107C9F70E949C
:1000F00081020C94F2030C94000090E0FC01E057A4
:10010000FF4F2491FC01E458FF4F8491882399F01C
:1001100090E0880F991FFC01EE58FF4FA591B49114
:10012000FC01E859FF4F859194918FB7F894EC91B9
:10013000E22BEC938FBF08953FB7F8948091310183
:1001400090913201A0913301B091340126B5A89B62
:1001500005C02F3F19F00196A11DB11D3FBFBA2F59
:10016000A92F982F8827820F911DA11DB11DBC01B9
:10017000CD0142E0660F771F881F991F4A95D1F77E
:100180000895CF92DF92EF92FF920F931F93CF9338
:10019000DF936C017A018B01C0E0D0E0CE15DF0562
:1001A00089F0D8016D918D01D601ED91FC910190FE
:1001B000F081E02DC6010995892B11F47E0102C062
:1001C0002196ECCFC701DF91CF911F910F91FF9046
:1001D000EF90DF90CF900895089580E090E008952B
:1001E000FC01538D448D252F30E0842F90E0821B3D
:1001F000930B541710F0CF96089501970895FC01C2
:10020000918D828D981761F0828DDF01A80FB11D4D
:100210005D968C91928D9F5F9F73928F90E0089571
:100220008FEF9FEF0895FC01918D828D981731F02B
:10023000828DE80FF11D858D90E008958FEF9FEF7F
:100240000895FC01918D228D892F90E0805C9F4F55
:10025000821B91098F739927089585E391E00E948D
:10026000210121E0892B09F420E0822F0895FC016F
:10027000848DDF01A80FB11DA35ABF4F2C91848D2F
:1002800090E001968F739927848FA689B7892C9364
:10029000A089B1898C9180648C93938D848D9813FF
:1002A00006C00288F389E02D80818F7D80830895C8
:1002B000EF92FF920F931F93CF93DF93EC0181E0B6
:1002C000888F9B8D8C8D981305C0E889F989808172
:1002D00085FD24C0F62E0B8D10E00F5F1F4F0F73AE
:1002E0001127E02E8C8DE8120CC00FB607FCFACF58
:1002F000E889F989808185FFF5CFCE010E94370119
:10030000F1CF8B8DFE01E80FF11DE35AFF4FF08214
:100310000B8FEA89FB898081806207C0EE89FF89A3
:100320006083E889F98980818064808381E090E03E
:10033000DF91CF911F910F91FF90EF900895CF9390
:10034000DF93EC01888D8823C9F0EA89FB898081DD
:1003500085FD05C0A889B9898C9186FD0FC00FB6AF
:1003600007FCF5CF808185FFF2CFA889B9898C91F0
:1003700085FFEDCFCE010E943701E7CFDF91CF910E
:10038000089580E090E0892B29F00E942D018111D1
:100390000C9400000895009769F0FC010190002082
:1003A000E9F73197AF01481B590BBC0185E391E098
:1003B0000C94C10080E090E008950E94ED031F922C
:1003C0000F920FB60F9211242F933F938F939F9309
:1003D000AF93BF9380912D0190912E01A0912F0199
:1003E000B091300130912C0123E0230F2D3720F400
:1003F0000196A11DB11D05C026E8230F0296A11D7F
:10040000B11D20932C0180932D0190932E01A09378
:100410002F01B09330018091310190913201A09170
:100420003301B09134010196A11DB11D80933101BA
:1004300090933201A0933301B0933401BF91AF91F7
:100440009F918F913F912F910F900FBE0F901F9012
:1004500018951F920F920FB60F9211242F933F936E
:100460004F935F936F937F938F939F93AF93BF93BC
:10047000EF93FF9385E391E00E943701FF91EF91A5
:10048000BF91AF919F918F917F916F915F914F91AC
:100490003F912F910F900FBE0F901F9018951F92B4
:1004A0000F920FB60F9211242F938F939F93EF9378
:1004B000FF93E0914501F09146018081E0914B016D
:1004C000F0914C0182FD12C0908180914E018F5FAE
:1004D0008F7320914F01821751F0E0914E01F0E0AF
:1004E000EB5CFE4F958F80934E0101C08081FF91A0
:1004F000EF919F918F912F910F900FBE0F901F90B2
:100500001895CF93DF93CDB7DEB7A1970FB6F894C8
:10051000DEBF0FBECDBF789484B5826084BD84B544
:10052000816084BD85B5826085BD85B5816085BDEE
:1005300080916E00816080936E00109281008091A6
:10054000810082608093810080918100816080932E
:100550008100809180008160809380008091B10053
:1005600084608093B1008091B00081608093B0007E
:1005700080917A00846080937A0080917A00826012
:1005800080937A0080917A00816080937A008091D4
:100590007A00806880937A001092C100E091450152
:1005A000F091460182E08083E0914101F0914201A7
:1005B0001082E0914301F09144018FEC808310920E
:1005C0004D01E0914901F0914A0186E08083E0917C
:1005D0004701F0914801808180618083E09147016B
:1005E000F0914801808188608083E0914701F0911B
:1005F0004801808180688083E0914701F091480143
:1006000080818F7D808388E00E947D008AE00E9447
:100610007D0095E4392E2AE0822E912CA12CB12C5C
:1006200030927C0080917A00806480937A0080917F
:100630007A0086FDFCCF009178008091790010E06F
:10064000182B82E191E00E94CB012801012E000CC1
:100650006608770817FF26C0E0913501F091360152
:100660000190F081E02D6DE285E391E0099522276C
:100670003327A901241935094609570919A2CE01C2
:1006800081967C01CA01B901A50194010E94C503AC
:10069000605DF70162937F01211531054105510528
:1006A00089F715C0A301920119A2CE0181967C01A0
:1006B000CA01B901A50194010E94C503605DF7015B
:1006C00062937F01211531054105510589F7C70165
:1006D0000E94CB0188E291E00E94CB010E949C0025
:1006E0006B017C0184EF482E55245394612C712CAE
:1006F0000E949C00DC01CB018C199D09AE09BF0949
:10070000883E9340A105B10558F0F1E04F1A510819
:100710006108710828EEC20E23E0D21EE11CF11C14
:10072000411451046104710419F70E94C10178CF8A
:10073000E5E3F1E01382128288EE93E0A0E0B0E0FE
:1007400084839583A683B78384E091E0918380833B
:1007500085EC90E09587848784EC90E09787868786
:1007600080EC90E0918B808B81EC90E0938B828B7E
:1007700082EC90E0958B848B86EC90E0978B868B57
:10078000118E128E138E148E0895A1E21A2EAA1BBA
:10079000BB1BFD010DC0AA1FBB1FEE1FFF1FA21731
:1007A000B307E407F50720F0A21BB30BE40BF50B2E
:1007B000661F771F881F991F1A9469F760957095B7
:1007C000809590959B01AC01BD01CF010895EE0F7E
:1007D000FF1F0590F491E02D099481E090E0F894DA
:0807E0000C94F203F894FFCF22
:1007E800000000005801C100F0009F012101FF0036
:1007F8001301456C2076616C6F722064656C207003
:0C0808006F742065733A20000D0A000098
:00000001FF
